{
  "contractName": "admined",
  "abi": [
    {
      "inputs": [],
      "stateMutability": "nonpayable",
      "type": "constructor"
    },
    {
      "inputs": [],
      "name": "admin",
      "outputs": [
        {
          "internalType": "address",
          "name": "",
          "type": "address"
        }
      ],
      "stateMutability": "view",
      "type": "function"
    },
    {
      "inputs": [
        {
          "internalType": "address",
          "name": "newAdmin",
          "type": "address"
        }
      ],
      "name": "transferAdminship",
      "outputs": [],
      "stateMutability": "nonpayable",
      "type": "function"
    }
  ],
  "bytecode": "0x608060405234801561001057600080fd5b50336000806101000a81548173ffffffffffffffffffffffffffffffffffffffff021916908373ffffffffffffffffffffffffffffffffffffffff160217905550610224806100606000396000f3fe608060405234801561001057600080fd5b50600436106100365760003560e01c80635be7cc161461003b578063f851a44014610057575b600080fd5b61005560048036038101906100509190610197565b610075565b005b61005f610110565b60405161006c91906101d3565b60405180910390f35b60008054906101000a900473ffffffffffffffffffffffffffffffffffffffff1673ffffffffffffffffffffffffffffffffffffffff163373ffffffffffffffffffffffffffffffffffffffff16146100cd57600080fd5b806000806101000a81548173ffffffffffffffffffffffffffffffffffffffff021916908373ffffffffffffffffffffffffffffffffffffffff16021790555050565b60008054906101000a900473ffffffffffffffffffffffffffffffffffffffff1681565b600080fd5b600073ffffffffffffffffffffffffffffffffffffffff82169050919050565b600061016482610139565b9050919050565b61017481610159565b811461017f57600080fd5b50565b6000813590506101918161016b565b92915050565b6000602082840312156101ad576101ac610134565b5b60006101bb84828501610182565b91505092915050565b6101cd81610159565b82525050565b60006020820190506101e860008301846101c4565b9291505056fea2646970667358221220d9e551fc0449d91bf5fdeee667176dd9fa9cf81c13d7a0ed7da39339160b600764736f6c634300080a0033",
  "immutableReferences": {},
  "source": "pragma solidity ^0.8.10;\n\ncontract admined {\n    address public admin;\n    \n    constructor() public {\n        admin = msg.sender;\n    }\n  \n    modifier onlyAdmin(){\n        require(msg.sender == admin);\n        _;\n    }\n\n    function transferAdminship(address newAdmin) onlyAdmin public{\n        admin = newAdmin;\n    }\n\n}\n\ncontract TCoin{\n\n    mapping (address => uint256) public balanceOf;\n    mapping (address => mapping (address => uint256)) public allowance;\n    //balanceOf[address]=5;\n    string public standard = \"TCoin v1.0\";\n    string public name;\n    string public symbol;\n    uint8 public decimals;\n    uint256 public totalSupply;\n    event Transfer(address indexed from, address indexed to, uint256 value);\n\n\n    constructor(uint256 initialSupply, string memory tokenName, string memory tokenSymbol, uint8 decimalUnits) public{\n        balanceOf[msg.sender] = initialSupply;\n        totalSupply = initialSupply;\n        decimals = decimalUnits;\n        symbol = tokenSymbol;\n        name = tokenName;\n    }\n\n    function transfer(address _to, uint256 _value) public {\n        require(balanceOf[msg.sender] > _value);\n        require(balanceOf[_to] + _value > balanceOf[_to]) ;\n        //if(admin)\n\n        balanceOf[msg.sender] -= _value;\n        balanceOf[_to] += _value;\n        emit Transfer(msg.sender, _to, _value);\n\n\n    }\n\n    function approve(address _spender, uint256 _value) public returns (bool success){\n        allowance[msg.sender][_spender] = _value;\n        return true;\n    }\n\n    function transferFrom(address _from, address _to, uint256 _value) public returns (bool success){\n        require(balanceOf[_from] > _value);\n        require(balanceOf[_to] + _value > balanceOf[_to]);\n        require(_value < allowance[_from][msg.sender]);\n        balanceOf[_from] -= _value;\n        balanceOf[_to] += _value;\n        allowance[_from][msg.sender] -= _value;\n        emit Transfer(_from, _to, _value);\n        return true;\n    }\n}",
  "sourcePath": "/Users/frankhc/Desktop/erc20/contracts/tokenCoin.sol",
  "compiler": {
    "name": "solc",
    "version": "0.8.10+commit.fc410830.Emscripten.clang"
  },
  "schemaVersion": "3.4.3",
  "updatedAt": "2021-11-28T18:36:54.128Z",
  "devdoc": {
    "kind": "dev",
    "methods": {},
    "version": 1
  },
  "userdoc": {
    "kind": "user",
    "methods": {},
    "version": 1
  }
}